:020000040800F2
:10000000702200209D010008D9260008BF170008B3
:100010008D260008ED0300085530000800000000A0
:1000200000000000000000000000000005010008C2
:10003000910500080000000049010008CD2D0008CE
:10004000B7010008B7010008B7010008B7010008B0
:10005000B7010008B701000893050008B7010008C0
:10006000B7010008B7010008B7010008B701000890
:10007000B7010008B7010008B7010008B701000880
:10008000B7010008B7010008B7010008B701000870
:10009000B7010008B7010008B7010008B701000860
:1000A000B7010008B7010008B7010008B701000850
:1000B000B7010008B7010008492E0008B701000881
:1000C000B7010008B7010008B7010008B701000830
:1000D000B7010008B70100081D300008B70100088B
:1000E000B7010008B7010008B7010008DFF810D019
:1000F00000F0E2F800480047A5360008AFF30080A2
:1001000070220020224B19680868B0E8F00F80F3D5
:100110000988BFF36F8F4FF0000080F311884EF015
:100120000D0E70470000000006480068006880F36C
:10013000088862B661B6BFF34F8FBFF36F8F00DFE1
:1001400000BF00BF08ED00E0EFF30980BFF36F8F41
:100150000F4B1A6820E9F00F106008B54FF05000FF
:1001600080F31188BFF34F8FBFF36F8F04F064FCEF
:100170004FF0000080F31188BDE808401968086856
:10018000B0E8F00F80F30988BFF36F8F704700BFAE
:100190003C000020EFF305807047000006488047D0
:1001A00006480047FEE7FEE7FEE7FEE7FEE7FEE75C
:1001B000FEE7FEE7FEE7FEE7472E0008ED00000839
:1001C00040EA01039B0703D009E008C9121F08C0D9
:1001D000042AFAD203E011F8013B00F8013B521E59
:1001E000F9D27047D2B201E000F8012B491EFBD2D0
:1001F00070470022F6E710B513460A460446194632
:10020000FFF7F0FF204610BD421E12F8013F002B01
:10021000FBD111F8013B02F8013B002BF9D17047EB
:1002200030B505462A460B4612F8010B13F8014B70
:1002300008B1A042F8D01CB1002802D06D1CF1E733
:10024000284630BD421C10F8011B0029FBD1801A42
:10025000704710B5002200E0521C835C8C5CA34206
:1002600001D1002BF8D1D8B2E1B2401A10BD30B59F
:1002700005460020034600E05B1C934205D2EC5C7F
:10028000C85C201A01D1002CF6D130BD30B50B4628
:10029000014600202022012409E021FA02F59D42B6
:1002A00005D303FA02F5491B04FA02F52844151E8A
:1002B000A2F10102F1DC30BD064C074D06E0E0681A
:1002C00040F0010394E8070098471034AC42F6D39D
:1002D000FFF710FF9C5F0008BC5F000810B504002A
:1002E00008D0206830B12189FFF783FF0020E0802B
:1002F000A08010BD4FF0FF3010BD70B504000D465A
:1003000003D015B1206818B106E04FF0FF3070BD82
:10031000084603F0FFF920600020E080A0802581DE
:1003200070BD30B54FF0FF3430B1036823B119B15F
:10033000C2888588AA4201D1204630BD9A5C0A70E5
:10034000C1880289491CB1FBF2F302FB1311C18081
:10035000002030BDF0B5070015460E464FF00004F2
:100360004FF0FF3010D0396800290DD0002E0BD08F
:10037000002D09D005E031193846FFF7D2FF10B93A
:10038000641CAC42F7DB2046F0BDF0B54FF0FF3502
:1003900078B104686CB1838806895A1CB2FBF6F701
:1003A00006FB1722C688964203D0E15482800020C3
:1003B000F0BD2846F0BDF0B5070015460E464FF0DB
:1003C00000044FF0FF3010D0396800290DD0002E06
:1003D0000BD0002D09D005E0315D3846FFF7D5FF81
:1003E00010B9641CAC42F7DB2046F0BDFEE70120EB
:1003F00000F00CB810B50221034800F027FA0128DC
:1004000000D0002010BD000000080140044B08B1DE
:10041000012200E000220221184600F01CBA000070
:10042000000801402DE9F05F82468B460020FFF76F
:10043000EDFF142003F0A4F9012202211C4800F072
:100440000AFA3C2004F0F4F8FFF7D4FF4FF0FF392C
:1004500058BB4FF47A742146012000F087F820BB86
:100460002146002000F082F8F8B900F023F8C5B268
:1004700000F020F800F0FF0800F01CF8C4B200F013
:1004800019F8C7B200F016F8C6B20120FFF7BEFF98
:1004900005EB080020443844B04206D1CAF80050A9
:1004A0000020CBF80040BDE8F09F4846FBE7000085
:1004B000000801402DE9F04100242546671E4FF455
:1004C0007A763146012000F051F870B9282004F006
:1004D000AFF86400FFF78EFF012801D144F001045A
:1004E0003146002000F042F810B13846BDE8F081F6
:1004F0006D1C082DE5DB2046F8E700001CB5012047
:10050000FFF784FF4FF4FA6401A96846FFF78AFFFA
:1005100018B10120FFF77AFF18E000210DA208466C
:1005200001F02CFB0DA20221002001F027FB052188
:100530000020009A01F020FBC0B22522052101F025
:100540001FFB05210B20019A01F016FB204603F04A
:1005500017F9D9E744485431313A000048756D69BC
:10056000646974792054656D7000000070B50C46A4
:10057000054608E0FFF73EFFA84201D1002070BD0C
:10058000012004F055F8641EF4D24FF0FF3070BD26
:1005900070474FF4804000F05DB870470EB5054BD2
:1005A0000ECB8DE80E00006864226946C368984748
:1005B0000EBD0000BC5E00082DE9FE4306461F4646
:1005C000154688466846029304F0D2F93068AAB20C
:1005D0003B4644694146A0470446A84205DA02A9C1
:1005E000684604F02DFD0028F0D02046BDE8FE83CB
:1005F00070B5006815460024066992B2B04700B98C
:100600002C46204670BD000070B5044600F028F965
:100610000546601C02D004480078044400F020F92C
:10062000401BA042FAD370BD040000204FF480416B
:10063000064A884202D11078C0431070107818B171
:100640000022034800F007B90122FAE71800002051
:10065000000C0140044910B50A68024202D008604B
:10066000FFF7E4FF10BD0000140401402DE9F84F2E
:10067000DFF8B891002409F1040A0AF1040B2346BB
:100680000F270BF1040EC9E00125A5402A40AA421C
:100690007DD1674ED1F804C0ACEB0608B44532D02A
:1006A00014DCBCF1030F3AD009DCBCF1000F2AD0F6
:1006B000BCF1010F1CD0BCF1020F31D11DE0BCF127
:1006C000110F17D0BCF1120F2AD119E0B8F5881F0D
:1006D00019D006DCB8F5803F15D0B8F5801F1FD1C2
:1006E00011E0B8F5001F0ED0B8F5041F18D10AE0CC
:1006F000CB6815E0CB681B1D12E0CB6808330FE018
:10070000CB680C330CE08B682BB1012B4FF0080346
:1007100003D0456104E0042302E0056100E000230A
:10072000FF2A01D8064601E000F104064FEA8405DD
:1007300001D9A5F12005D6F8008007FA05FC28EAC2
:100740000C0803FA05F548EA0508C6F800804D686C
:10075000ED0062D5374DAE6946F00106AE61AD6978
:1007600024F0030605F001050095334D06EB050C5A
:10077000DCF80850A607360F07FA06F825EA080540
:10078000DFF8B880404503D14FF0000817E044E09F
:10079000DFF8AC80404502D14FF001080FE0DFF8F0
:1007A000A480404502D14FF0020808E0DFF89880AD
:1007B000404502D14FF0030801E04FF0040808FA69
:1007C00006F848EA0508CCF808804D68D9F80060BA
:1007D000ED034D4601D5164300E096432E604D686B
:1007E000DAF80060AD03554601D5164300E09643A4
:1007F0002E604D68DBF80060ED025D4601D51643C2
:1008000000E096432E604D68DEF80060AD0275464C
:1008100001D5164300E096432E60641C0D682A46FD
:10082000E5407FF431AFBDE8F88F000000040140DF
:1008300000001110001002400000014000080140BB
:10084000000C014000100140001401408068084085
:1008500000D0012070470AB1016170470904FBE72D
:1008600001488068704700000400002070B5040053
:1008700025D094F83D00002520B984F83C5020464E
:1008800000F0E6F9242084F83D002068016821F09A
:10089000010101602068016841F4004101602068A5
:1008A000016821F40041016000F068FB4D4A616875
:1008B000914201D84C4900E04C49884201D20120C4
:1008C00070BD4B492368B0FBF1F15E6826F03F062E
:1008D0000E435E606368934206D94FF496735943A2
:1008E0004FF47A73B1FBF3F12368491C1E6A26F0BA
:1008F0003F06314319626168914210D84900401E99
:10090000B0FBF1F2521CC2F30B02042A01D2042004
:1009100022E0B0FBF1F0401CC0F30B001CE0A26829
:10092000F2B301EBC10303EB0116431EB3FBF6F375
:100930005B1C43F480431B0549D092B301EBC10219
:1009400002EB0111401EB0FBF1F0401CC0F30B00A4
:1009500040F4804040F400402168CA694CF6FF73BF
:100960009A431043C861D4E9071001432068026824
:1009700022F0C00211430160D4E903010143206861
:10098000826848F2FF339A4311438160D4E905013C
:1009900008432168CA6822F0FF021043C86001E0E2
:1009A0000EE016E02068016841F001010160256455
:1009B000202084F83D00256384F83E50002070BD5F
:1009C00001EB4106431EB3FBF6F35B1CB3E70120CA
:1009D000C2E701EB4101401EB0FBF1F0401CC0F347
:1009E0000B00B7E7A086010080841E0000093D00CF
:1009F00040420F002DE9F84F1F4690468A460446B4
:100A0000DDF82890FFF72CFF054694F83D002028DC
:100A10007FD11923012240492046009500F0B0FF04
:100A2000002876D194F83C00012872D0012084F887
:100A30003C0020680168C90703D1016841F0010149
:100A400001602068016821F400610160212084F8C0
:100A50003D00102084F83E0000262664C4F824805F
:100A60006785608D20852D48E0622B464A465146B9
:100A7000204600F0BDFE90B9206841698069009071
:100A800036E02A464946204600F0F9FF50B1206C76
:100A9000042804D12068016841F40071016001203C
:100AA000BDE8F88F606A216800780861606A401CC0
:100AB0006062618D491E6185218D491E89B2218543
:100AC00022685369DB435B070BD451B10078106196
:100AD000606A401C6062608D401E6085208D401EF3
:100AE00020852A464946204600F024FF0028CED122
:100AF000208D0028C5D154F83D0B016841F40071E8
:100B00000160202004F81E09E67766770020C7E719
:100B1000FFE70220C4E70000020010000000FFFF12
:100B20002DE9FF4F83B09A46DDE9119793460446BD
:100B3000DDF84080FFF794FE054694F83D0020283C
:100B40007FD11923012240492046009500F018FF6B
:100B5000002876D194F83C00012872D0012084F856
:100B60003C0020680168C90703D1016841F0010118
:100B700001602068016821F400610160212084F88F
:100B80003D00402084F83E0000262664C4F82480FE
:100B9000A4F82A90608D20852C48E062CDE900758C
:100BA00053465A462046049900F070FE70B930E072
:100BB0002A463946204600F062FF58B1206C0428CE
:100BC00004D12068016841F400710160012007B080
:100BD000BDE8F08F606A216800780861606A401C97
:100BE0006062218D491E89B22185628D521E628507
:100BF00022685369DB435B070BD469B1007810614D
:100C0000606A401C6062208D401E2085608D401E01
:100C10006085208D0028CBD12A463946204600F039
:100C200089FE0028CAD154F83D0B016841F40071D7
:100C30000160202004F81E09E67766770020C6E7E9
:100C4000FFE70220C3E70000020010000000FFFFE2
:100C500010B586B0002100910191029103910068C6
:100C60000F4988421AD10F4CA06940F00800A061DA
:100C7000A069694600F008000490C020009012208E
:100C80000190032003900848FFF7F0FCE06940F46E
:100C90000010E061E06900F40010049006B010BD9F
:100CA0000054004000100240000C014002488168DE
:100CB000027811448160704704000020074810B595
:100CC000016841F010010160032000F08FF800205E
:100CD00000F006F800F03EF8002010BD00200240B1
:100CE00000B5014687B000221E2000F05FF81E20EC
:100CF00000F04EF81348C16941F00401C161C069B8
:100D000005A900F004000690684600F017F900F00D
:100D100035F90D494000B0FBF1F10D480B4A491E71
:100D20000260416040F2E7320021C0E903218160A6
:100D300000F00CFB10B1012007B000BD044800F02A
:100D400033FBF9E70010024040420F00000800406A
:100D5000E80100200C4808B5816941F0010181617A
:100D6000816901F001010091C16941F08051C161C7
:100D7000C06900F0805000900448416821F0E061B3
:100D800041F00071416008BD0010024000000140C8
:100D9000002809DB00F01F0201219140400980007A
:100DA00000F1E020C0F8001170470000F0B40E4BD5
:100DB0001B680C46C3F30223C3F10705042D00D9B9
:100DC0000425191D072901D2002300E0DB1E01269E
:100DD00006FA05F1491E214099409E40761E1640B4
:100DE0003143F0BC02F05CB90CED00E0064900F0C4
:100DF000070208684FF6FF03184040EA0220034A42
:100E000010430860704700000CED00E00000FA0598
:100E10002DE9F0470F46050061D0434E306800F0E1
:100E20000700B84209D2306820F00700384330602C
:100E3000306800F00700B84251D128683B4C810768
:100E400012D5400703D5606840F4E0606060287800
:100E5000000703D5606840F4605060606068A9686E
:100E600020F0F000084360602878C00728D0686848
:100E7000012810D02168022810D0890700292EDA15
:100E8000616821F0030101436160FFF7E9FC8046DE
:100E900041F288390DE021688903EFE78901EDE728
:100EA000FFF7DEFCA0EB0801494502D90320BDE8AD
:100EB000F0876068696800F00C00B0EB810FEFD13B
:100EC000306800F00700B8420BD9306820F0070006
:100ED00038433060306800F00700B84201D001208C
:100EE000E5E72878400705D56068E96820F4E06008
:100EF000084360602878000706D56068296920F4F7
:100F0000605040EAC100606000F058F86168084A2B
:100F1000C1F30311515CC8400649086006480068E7
:100F2000FFF7DEFE0020C2E7002002400010024072
:100F30009855000810000020080000200F220260D1
:100F40000C4A536803F003034360536803F0F00353
:100F50008360536803F4E063C36052684FF4E06356
:100F600003EAD20202610448006800F0070008604A
:100F7000704700000010024000200240044805496C
:100F800000684968044AC1F30221515CC8407047B7
:100F90001000002000100240A85500080448054930
:100FA00000684968044AC1F3C221515CC8407047D7
:100FB0001000002000100240A855000812A185B0C2
:100FC0000FC98DE80F0014A0144A006804905168FE
:100FD000134801F00C03042B10D0082B0ED1C1F3E1
:100FE0008343C9031DF803000AD5516804AAC1F35D
:100FF0004041515C0A4A5043B0FBF1F005B07047E4
:1010000008494843FAE700000203040506070809F7
:101010000A0B0C0D0E0F1010010200000010024010
:1010200000127A0000093D002DE9F84F040070D04D
:101030002078C04DC00749D06868C0F381000128FE
:1010400007D06868C0F38100022809D16868C0032E
:1010500006D52868800339D560680028E7D035E0D8
:101060006068B0F5803F0BD010B1B0F5A02F11D063
:10107000286820F480302860286820F4802002E06E
:10108000286840F480302860606890B1FFF7E8FB82
:1010900006460AE0286840F480202860F0E700BF98
:1010A000FFF7DEFB801B642873D828688003F7D520
:1010B0000CE0FFF7D5FB064605E000BFFFF7D0FBCD
:1010C000801B6428F0D828688003F7D420789A4ED3
:1010D00080074FF001094FF0000839D5686810F01B
:1010E0000C0F07D06868C0F38100022809D1686836
:1010F000C00306D42868800714D52069012808D1C8
:1011000010E02069B0B1C6F80090FFF7A9FB0746D0
:1011100005E00AE1FFF7A4FBC01B0228C4D8286839
:101120008007F7D52868616920F0F80040EAC1001F
:1011300028600DE0C6F80080FFF792FB074604E048
:10114000FFF78EFBC01B022823D828688007F7D43E
:10115000207800072CD57948A169D9B1C0F8009052
:10116000FFF77EFB074604E0FFF77AFBC01B02286F
:101170000FD8686A8007F7D571484FF4FA510068B4
:10118000B0FBF1F0009000BF0098411E0091FAD230
:101190000EE080E0C0F80080FFF762FB074604E045
:1011A000FFF75EFBC01B022875D8686A8007F7D47A
:1011B0002078400760D5E8690027C00008D4E869B6
:1011C00040F08050E861E869012700F0805000900D
:1011D0005C480168C90513D40168834641F48071F5
:1011E0000160FFF73DFB824606E000BFFFF738FBDA
:1011F000A0EB0A0064284ED8DBF80000C005F5D546
:10120000E06801280AD008B1052813D0286A20F028
:1012100001002862286A20F0040002E0286A40F0F9
:1012200001002862E06841F2883B98B1FFF718FBA3
:1012300082460BE0286A40F004002862EEE700BF17
:10124000FFF70EFBA0EB0A0159455AD8286A800720
:10125000F6D50CE0FFF704FB824605E0FFF700FB44
:10126000A0EB0A0159454CD8286A8007F6D41FB173
:10127000E86920F08050E861E06988B36968C1F3EB
:101280008101022944D00228C6F8608004D0FFF70B
:10129000E7FA044638E034E0FFF7E2FA074604E0F4
:1012A000FFF7DEFAC01B02282BD828688001F7D48C
:1012B000206AB0F5803F05D16868A16820F400304D
:1012C00008436860D4E908010843696821F474118F
:1012D00008436860C6F86090FFF7C2FA044606E06B
:1012E00025E000BFFFF7BCFA001B022809D82868D8
:1012F0008001F7D51BE000BFFFF7B2FA001B022800
:1013000002D90320BDE8F88F28688001F4D40EE0EC
:101310000128F7D06868226A00F48031914204D134
:10132000616A00F47010884201D00120EAE70020D1
:10133000E8E7000000100240000042428004424200
:1013400010000020007000407047704710B5040086
:1013500003D094F83D0010B107E0012010BD00203B
:1013600084F83C00204600F01EF8022084F83D007E
:10137000211D206801F06EFD012084F8460084F8EC
:101380003E0084F83F0084F8400084F8410084F86F
:10139000420084F8430084F8440084F8450084F84F
:1013A0003D00002010BD704790F83D10012901D08C
:1013B00001207047022180F83D100168CA6842F0A0
:1013C0000102CA6000680B49884208D0B0F1804F22
:1013D00005D00949884202D00849884204D1816871
:1013E00001F00701062903D0016841F00101016005
:1013F00000207047002C014000040040000800401D
:10140000704770B50446006801694FF00005C94394
:10141000890715D4C168C943890711D4E91E016140
:1014200001202077206880698007204602D0FFF7DE
:10143000E7FF04E000F098F8204600F096F82577E2
:1014400020680169C943490717D4C168C9434907DE
:1014500013D46FF0040101610220207720688069B5
:1014600010F4407F204602D0FFF7CAFF04E000F0EE
:101470007BF8204600F079F8257720680169C94398
:10148000090716D4C168C943090712D46FF00801CF
:101490000161042020772068C0698007204602D0BF
:1014A000FFF7AEFF04E000F05FF8204600F05DF8C3
:1014B000257720680169C943C90617D4C168C943A3
:1014C000C90613D46FF0100101610820207720684D
:1014D000C06910F4407F204602D0FFF791FF04E07E
:1014E00000F042F8204600F040F8257720680169B6
:1014F000C943C90708D1C168C943C90704D1891EB6
:101500000161204600F032F820680169C9430906EC
:1015100009D4C168C943090605D46FF0800101618F
:101520002046FFF711FF20680169C943490609D425
:10153000C168C943490605D46FF0400101612046E6
:1015400000F01EF820680169C94389060BD4C16800
:10155000C943890607D46FF0200101612046BDE828
:101560007040FFF7F2BE70BD7047704700680349D6
:10157000884201D1FFF79ABB704700000008004085
:101580007047000030B50068194985B088422DD1F8
:10159000184800240294C16941F40031C161C16955
:1015A00001F400310491816941F004018161806995
:1015B000114D00F0040004900420009002200190DE
:1015C0000320039069462846FFF750F80820CDE92C
:1015D0000004694628460294FFF748F800220121DA
:1015E0002620FFF7E3FB2620FFF7D2FB05B030BD36
:1015F00000440040001002400008014070B50400A3
:1016000004D094F83D00002510B106E0012070BD23
:1016100084F83C50204600F023F8242084F83D0054
:101620002068C16821F40051C160204601F068FCC7
:101630002068016921F4904101612068416921F02D
:101640002A0141612068C16841F40051C1602564EC
:10165000202084F83D0084F83E00002070BD00008A
:1016600070B586B000240094019402940394234E34
:101670000368234902200322224DB34219D18B690A
:1016800043F480438B618B6903F4804304938B693B
:1016900043F004038B618969039201F00401049112
:1016A0000102CDE9001069462846FEF7DFFF281544
:1016B0001BE0154EB3421FD1CB6943F40033CB611D
:1016C000CB6903F4003304938B6943F004038B610B
:1016D0008969039201F0040104910421CDE900100D
:1016E00069462846FEF7C2FF0820CDE90004694696
:1016F00028460294FEF7BAFF06B070BD00380140DC
:101700000010024000080140004400402DE9F84369
:10171000044690F83D001F4616460D4620284CD141
:10172000C5B1BEB194F83C00012846D0012084F830
:101730003C004FF00008C4F84080212084F83D00B0
:10174000FFF78EF8A6848146E684A068B0F5805F36
:1017500003D004E00120BDE8F883206928B12E46BB
:101760005FF0000584F83C800EE00026FAE7802157
:10177000204601F021FCA0B9AEB116F8010B21689A
:101780004860E08C401EE084E08C4B464FF0000245
:1017900000970028EBD14FF04001204601F00CFCEF
:1017A00030B10320D7E735F8020BC0F30800E6E7B5
:1017B000202084F83D000020CDE70220CBE7FEE7A3
:1017C00001684A69D24352050FD46FF480624A61BE
:1017D000002140F8301F202242738173026942F0D9
:1017E000040202610173012070470020704700006D
:1017F000F8B50446C06A1E460D461746082807D0AD
:10180000012805D010F5803F02D0206B122804D1AA
:101810002068016841F480710160134600224FF096
:1018200001112046009600F0ABF840B12068006836
:10183000C00502D54FF4007020640320F8BD206974
:10184000B0F5804F0ED00620216800EAD51040F098
:10185000F000086133463A460B49204600F0C4F8D0
:1018600078B902E005F0FE0000E0E8B22168086106
:10187000054933463A46891F204600F0B5F800284E
:10188000DCD00120F8BD0000080001002DE9F8437C
:10189000044600680D46DDE908970168984616463B
:1018A00041F4807101604B4600224FF00111204647
:1018B000009700F065F848B120680068C00502D5BF
:1018C0004FF4007020640320BDE8F883216805F020
:1018D000FE0008613B464A461549204600F084F860
:1018E00088B920684169806900903A464946204697
:1018F00000F0C5F848B1206C042804D120680168C4
:1019000041F4007101600120DEE7F5B2B8F1010F8A
:1019100009D02168300A08613A464946204600F05D
:10192000AEF80028E7D1206805610020CCE7000070
:101930000200010070B516460D4604460DE0204633
:10194000FFF73EFF08B1012070BD681C05D0FEF70F
:1019500087FF801BA84207D835B120684069C04383
:101960004007ECD4002070BD002044F8300F202147
:101970006173A073216941F0200121612073E2E7C6
:101980002DE9F0471E4690460D460446C1F3074731
:10199000DDF8209008E0701C06D0FEF761FFA0EB98
:1019A0000900B0420FD876B12068012F18D08069A5
:1019B00025EA00000004000C14D000214145EAD0C3
:1019C0000020BDE8F087002044F8300F202161732B
:1019D000A073216941F02001216120730120F0E70B
:1019E0004069E5E70121E9E72DE9F0479A4691468C
:1019F0000E46044600254FF02008C1F3074725E0B6
:101A000020684069C043400514D42068016841F44F
:101A10000071016021686FF480604861256384F87B
:101A20003D8084F83E50206C40F00400206484F82F
:101A30003C501FE0B9F1FF3F08D0FEF711FFA0EBCB
:101A40000A0149450CD8B9F1000F09D02068012FCF
:101A500013D0806926EA00000004000C0BD0CFE709
:101A600044F8305F84F80D80A573206940F02000B1
:101A7000206125730120BDE8F0874069EAE770B571
:101A800016460D4604460DE02046FFF799FE08B1C4
:101A9000012070BD681C05D0FEF7E2FE801BA84245
:101AA00007D835B120684069C0430006ECD4002057
:101AB00070BD002044F8300F20216173A0732169AC
:101AC00041F0200121612073E2E70000014901EBB0
:101AD00000107047B400002001F03EBF01F04BBF82
:101AE00001F054BF10B586B0002400940194029414
:101AF000C02110480394FEF700FC0F48816941F0B3
:101B0000100181618069694600F0100004904FF473
:101B10008040CDE9000409480294FEF7A7FD0022A9
:101B200011460620FFF742F90620FFF731F906B00B
:101B3000002010BD3002002000100240000C0140C7
:101B400070B50C004FF0FF350DD0042C0BD3A1075E
:101B500009D140B10146E2B20448FEF7FBFBA042C6
:101B600001D1002070BD284670BD00003002002069
:101B700000F0EEBF01F002B801F04AB801F087B8FA
:101B800001F09EB80C4800B5816985B041F00401B0
:101B900081618069694600F0040004900220009091
:101BA000012001900290032003900448FEF75EFD9F
:101BB00005B0002000BD00000010024000080140F8
:101BC00010B530B1002202210348FEF744FE002088
:101BD00010BD0122F7E700000008014000210A467D
:101BE00000EBC103491C9A620529F9DB704700002C
:101BF0002DE9F0410446DDE90765069F41650021B6
:101C00004FEA010004EBC10C491CCCF8280005295F
:101C1000F8DB206266616062C4E90127C4E903530E
:101C2000207720650120206004F1580001F050F970
:101C300004F16400BDE8F04101F04AB900210177E8
:101C40000162416A002901D0FFF7C8BF704708B59B
:101C50006A4600F001F808BD2DE9F0419AB0164639
:101C60000F4604464FF0FF38454658222049684643
:101C7000FEF7A6FA206A80BB16A801F029F916A87B
:101C8000616801F022F907B96F46398BA161B87E0E
:101C9000606204F1640001F013F93A46A16820691A
:101CA00000F0EEF9011E1EDD16AA204602F096FC99
:101CB000050018D116AA0221204602F0EFFE0228E4
:101CC0000AD10027377077703146701CE36862696B
:101CD00000F034F8012801D0454604E0357815B904
:101CE0000120206227771AB02846BDE8F081000065
:101CF000645E00082DE9FC41074615460E460024A7
:101D00006846009302F0E4FB60F30704C4F3C000EC
:101D100030702009387001A9009800F0DDF80099B2
:101D2000019A014400910A44511A022904DB6846D1
:101D300002F0D4FB28800120BDE8FC812DE9FC41A4
:101D4000074600240E4625466846009202F0C0FB76
:101D50000146204661F307000009022819D101A9B4
:101D6000009800F0B9F800990546084401990090E0
:101D70000144081A02280CDB684602F0A9FB60F354
:101D8000070404F001003870684602F0A1FB3070CF
:101D900001252846BDE8FC812DE9FC5F8046DDE990
:101DA0000EA00024CDE90004994617460E462546AC
:101DB000DDF834B0684602F08BFB60F307042009BD
:101DC00003282CD1C4F3C00188F80010C4F34100EB
:101DD000306004F00100387001A9009800F07CF830
:101DE0000099054608440199009044182246694626
:101DF0000C9802F07CFB90B10098201A0FD4306848
:101E0000002804DD684602F069FBA9F8000000988C
:101E1000211ACAF8001000990125CBF800102846B5
:101E2000BDE8FC9F2DE9FC4781460A9800240090FC
:101E30009A46164688462546684602F049FB014602
:101E4000204661F307000009092826D101A900985E
:101E500000F042F80099054608440199009047189F
:101E6000381A022819DB684602F038FBA9F800008E
:101E700034600EE03168414502DD4FF0FF350CE083
:101E8000684602F025FB31688B00491C31604AF836
:101E900003000098B842EDD301252846BDE8FC8731
:101EA000F8B5012500240E4607460C60641C042C7E
:101EB0000FDC01216846B84701280AD19DF80000CF
:101EC000316800F07F0202FB0511ED013160000670
:101ED000ECD42046F8BD0000024A10600248FFF72B
:101EE000DFBF0000FC0000202D34000810B50346C1
:101EF0000020CA1701EB526424F07F02891ACAB28B
:101F0000E111002902DD00BF42F080021A5400F105
:101F10000100EEDC10BD70B504680E4624B1204609
:101F2000FEF790F9054601E0D0E901543046FEF78E
:101F300089F9854205D12A4631462046FEF797F9B0
:101F400008B1002070BD012070BD0000401C802839
:101F500001DA401C7047B0F5804F01DA801C7047F1
:101F60000349884201DAC01C7047001D7047000019
:101F7000FFFF1F002DE9F04306464FF0FF37006AD0
:101F80008BB015463C464FF00009884678B307A849
:101F900000F09EFF07A8716800F097FF28780128DD
:101FA00001D0022803D1304601F044FBA880D5E9D6
:101FB0000201CDE90501CDE90289CDF81090A9888B
:101FC0006878CDE900012B780022B168306900F013
:101FD00021F9011E29DD07AA304602F0FFFA0400AC
:101FE00021D12878012803D0022813D01BE01CE05F
:101FF00007AA0421304602F051FD042811D1F068EF
:10200000009001AA02A903A87369FFF773FE0128D3
:1020100007D108E007AA0721304602F03FFD072854
:10202000EDD03C4601E0601C02D13046FFF706FED1
:102030000BB02046BDE8F083F8B50024069E0546A7
:102040000090042901DAA01EF8BD62F3071463F3BF
:10205000C304062A24F0060000D1801CC1B26846E1
:1020600002F047FD02210098FFF740FF0099084465
:1020700000903146684602F042FD0098401BF8BDD2
:102080002DE9F8430746009088461446002510467F
:1020900000F082F88146FFF759FF404502DDA81E97
:1020A000BDE8F8832E46314666F3070168461031D5
:1020B00002F01FFD49460098FFF718FF00990844F9
:1020C0000090207A04281DD02FA1684602F0FDFC64
:1020D0000321684602F00DFDA07E66F3070560F35C
:1020E0004105E07E08B145F00405680707D594F87E
:1020F0003D0060F3C40594F83C0060F34515206C86
:1021000040B905E022A1684602F0DFFC0421E0E7C7
:10211000A06C08B145F08005E06C08B9606D08B1AD
:1021200045F040052946684602F0E3FC218B6846ED
:1021300002F0E5FC04F10C0168460EC902F0EEFC69
:10214000E07E68B12434684694E80E00243C02F036
:10215000E5FC3034684694E80E00303C02F0DEFCCA
:10216000280605D504F1400168460EC902F0D6FCE8
:10217000680605D54C34684694E80E0002F0CEFCA3
:102180000098C01B8CE700004D514973647000003B
:102190004D5154540000000070B50446007A0025EB
:1021A000032802D0042802D002E00C2500E00A2512
:1021B00004F10C0007C800F0A7F90544E07EAD1C4F
:1021C00078B1243494E80700243C00F09DF93034C1
:1021D000064694E80700303C00F096F93044054488
:1021E0002D1D206C08B9A16C29B1D4E9111200F0A1
:1021F0008BF90544AD1CE06C08B9616D29B1D4E9D7
:10220000141200F081F90544AD1C284670BD0C2263
:1022100000F0AFB82DE9FC5F1C46129ECDE90060CE
:10222000DDF838B09046DDF830A0DDE90F238946AF
:1022300007465946204600F030F80546FFF786FE6F
:10224000484503DD6FF00100BDE8FC9F302168F3D5
:10225000C30164F342016AF3000101A802F049FCE2
:1022600029460198FFF742FE019908440190DDE9F3
:102270000F23594601A802F051FC002C03DD01A8F0
:102280000D9902F03CFC324611990198FDF798FF38
:10229000019830440190C01BD6E770B50E46114638
:1022A00004461A463046049D00F02EF92844801C4E
:1022B000002C00DD801C70BD2DE9FF4F83B0064669
:1022C00010A8894690E88009002492462546414698
:1022D0003846009600F036F80190FFF737FE484583
:1022E00003DDA01E07B0BDE8F08F64F3070480345F
:1022F0006AF3C30424F00600801CC1B2684602F0F1
:10230000F8FBDDE90001FFF7F1FD009908440090BA
:102310006846069902F0F3FB0FE000BF05EB4501AC
:1023200008EB810090E80E00684602F0F7FB1BF80E
:102330002510684602F0DDFB6D1CBD42EEDB009807
:10234000801BCFE72DE9F04102250F460646002409
:102350000AE000BF04EB440007EB800007C800F070
:10236000D3F80544641CED1CB442F3DB2846BDE8F9
:10237000F08138B5002304460090022901DA981E46
:1023800038BD194663F3070162F30711684602F08E
:10239000B0FB00210098FFF7A9FD009908440090C8
:1023A000001B38BD2DE9F0471746894606464FF019
:1023B000FF35002406EBC408D8F8280018B14946B8
:1023C000FDF747FF30B1641C052CF3DB17B3681C25
:1023D0000DD01FE0002F06D106EBC4014FF0000026
:1023E0008862C8F82C004FF000050DD112E04FF0C4
:1023F000000400BF06EBC400806A20B104F10104B0
:10240000052CF7DB06E00025052C03DA06EBC400FB
:10241000C0E90A972846BDE8F0871CB501AC0094D6
:1024200000F001F81CBD2DE9FF478EB000261A9F71
:1024300005460796089606914FF0FF38006A9A46BF
:102440008946444620B309A800F042FD09A86968FE
:1024500000F03BFD284601F0EDF883B210AA06A972
:1024600001208DE807000022A9682869FFF724FFF2
:10247000011E27DD09AA284602F0B0F804001FD18A
:1024800009AA0921284602F009FB092801D044467F
:1024900018E002963E70E9686869CDE900013B46A4
:1024A00002AA012103A8FFF7BDFC012808D1387852
:1024B000802805D0524649462846FFF773FF044658
:1024C000601C02D12846FFF7B9FB12B02046BDE8D8
:1024D000F087FEB506460D460024684600F0F8FC7D
:1024E0002946684600F0F1FC6946304600F0B0FF2E
:1024F000002802DA4FF0FF3404E0684600F0EDFCFB
:102500000028F1D02046FEBD10B510B1FDF79AFEAF
:102510000146084610BD000010B5044A00210448D9
:1025200001F0C8F90349086010BD0000D05400084C
:10253000BD2D000800000020F0B585B0002424481F
:102540000094019402940394816941F01001816127
:10255000816901F010010491816941F020018161DC
:10256000816901F020010491816941F004018161D8
:10257000816901F004010491816941F008018161E0
:102580008069144E00F008004FF4005504900022BA
:1025900029463046FEF75FF90F4F002202213846E8
:1025A000FEF759F900950125CDE901540224694649
:1025B00030460394FEF75AF81120CDE90040CDE9EA
:1025C000025469463846FEF751F805B0F0BD0000E8
:1025D0000010024000100140000801400D4810B5F5
:1025E0000B4901600C49416000214FF48042816039
:1025F000C0E9031241618161C1610162FEF736F9F0
:10260000002803D0BDE81040FDF7C7BF10BD000093
:10261000005400400C010020A08601000C4810B5B9
:102620000A4901604FF4E1314160002181600C22D0
:10263000C160C0E904128161C161FEF7DFFF0028BB
:1026400003D0BDE81040FDF7A8BF10BD0038014021
:10265000600100200C4810B50A4901604FF4E131D7
:102660004160002181600C22C160C0E904128161D7
:10267000C161FEF7C3FF002803D0BDE81040FDF79D
:102680008CBF10BD00440040A4010020FEE7000004
:1026900010B5104C0E480C2120604FF4E130606002
:1026A0000020A060E060C4E90401A061E061204670
:1026B000FEF768FF2046FEF7A1FF10B14FF0FF3094
:1026C00010BD2068C16841F02001C160002010BD2C
:1026D000004400403C030020704700002DE9F04119
:1026E000244C0646224862680021571C86546760C5
:1026F00094F800C00D46BCF1000F14D02346BCF185
:10270000010F9B681ED0BCF1020F0AD19F4208D175
:102710000146DAB200F5A870FDF74DFE2570656040
:10272000A560BDE8F08101782B2901D06560F8E74C
:10273000042AF6D1052210A1FDF799FD0028F5D154
:10274000012013E03A2E03D0092AEADB2570EDE7D9
:102750006FF02F0606E0475C03EB830306EB4303B1
:102760003B44491C9142F6DB0220A3602070DDE768
:102770003C020020280000202B4950442C0000007F
:1027800001F00DB901F023B9012801D000207047F4
:1027900000487047E400002001F029B901F02DB98C
:1027A00001F03BB970B5A0B014460D460646802234
:1027B00008496846FDF704FD2B46324606A10DF197
:1027C000130000F059FCA2B205A1684600F0ACF875
:1027D00020B070BDE45500082573222C202564002C
:1027E0004F4B0D0A0000000070B58EB014460E4627
:1027F000054634220D496846FDF7E2FC2946684645
:10280000FDF702FD0AA16846FDF7FEFC3146684669
:10281000FDF7FAFC07A16846FDF7F6FCA2B206A197
:10282000684600F081F80EB070BD0000B055000899
:10283000222C220022000000474F542049500D0A4C
:10284000000000004FF4FA7201A103A000F06CB880
:102850004F4B0D0A0000000041542B43574F41508D
:10286000000000004FF4FA7201A103A000F05CB870
:102870004F4B0D0A0000000041542B434950434C7C
:102880004F53450010B5FFF703FF10B14FF0FF3075
:1028900010BD80210D48FDF730FD0C484FF48061DC
:1028A0000C30FDF72AFD42F2107209A10AA000F0D7
:1028B0003BF84FF4FA742046FDF7A6FE224604A129
:1028C00007A000F031F8002010BD000080030020B8
:1028D0004F4B0D0A0000000041542B52535400008E
:1028E00041542B43574D4F44455F4355523D3100B2
:1028F0002DE9F04115460E46074600240EE0F2B2DF
:1029000039190848FDF726FD0444B44202D10020DD
:10291000BDE8F08101206D1EFDF776FE002DEED1A1
:10292000681EF5E78C030020F0B5A1B00F460646FF
:102930001546002480216846FDF75BFC3146684659
:10294000FDF762FC1BA16846FDF76AFC18B919A1E6
:102950006846FDF759FC1848FDF7C0FC6846FDF7CE
:1029600071FC82B214484FF4FA7369464438FEF79A
:10297000CDFE80216846FDF73CFC6E4609E031192A
:102980000D48FDF7CEFC48B16D1EADB20120FDF73C
:102990003BFE002DF3D1681E21B0F0BD641C04F095
:1029A0007F0439466846FDF73BFC0028F1D0002043
:1029B000F2E700000D0A0000800300202DE9F0413D
:1029C00096B00E46804615460024402104A8FDF727
:1029D00010FC0020009001900290039032461CA150
:1029E000684600F049FB6846FDF72CFC82B24FF4C4
:1029F000FA773B4669461A48FEF788FE0120FDF744
:102A000003FE17484430FDF769FCB2B23B4641462D
:102A10001348FEF77BFE04AE09E01148311944303B
:102A2000FDF77FFC48B101206D1EFDF7EDFD002D87
:102A3000F3D1681E16B0BDE8F081641C04F03F04B9
:102A400008A104A8FDF7ECFB0028F0D00020F1E776
:102A500041542B43495053454E443D25640D0A00D3
:102A60003C03002053454E44204F4B003EB5074CDD
:102A7000A369246ACDE900310294ADF80A20006808
:102A80004FF4FA726946836898473EBDBC5E000801
:102A900010B504460120FFF777FE206000281AD009
:102AA0004168884720B10DA0BDE8104000F0D4BABD
:102AB000206841F2883210498368984708B10FA016
:102AC000F2E714A000F0C8FA184860601848A06047
:102AD0001848E06010BD18A0E6E700004E657420BD
:102AE00044657669636520496E6974206661696C26
:102AF00065642E0D0A000000C85E0008436F6E6E0C
:102B00006563742057694669206661696C65642E47
:102B10000D0A0000436F6E6E656374205769466945
:102B200020737563636573732E0D0A00B905000881
:102B3000F10500089D0500084E657420446576691E
:102B40006365206E6F7420666F756E642E0D0A00CB
:102B500010B5A0B0002480216846FDF74AFB002193
:102B6000204600F0E7F88021684600F017F9641C61
:102B7000E4B2082CF3D320B010BD000010B502243D
:102B8000202000F0F7F8204600F0F4F81F48047009
:102B90003F24A82000F0EEF8204600F0EBF80024D7
:102BA000D32000F0E7F8204600F0E4F8402000F0E1
:102BB000E1F8A12000F0DEF8C82000F0DBF80021E9
:102BC000084600F0A1F87F24812000F0D3F82046C9
:102BD00000F0D0F8A42000F0CDF8A62000F0CAF84C
:102BE000D52000F0C7F8802000F0C4F88D2000F058
:102BF000C1F8142000F0BEF80021012000F084F894
:102C0000BDE81040AF2000F0B5B80000340000204F
:102C1000F0B589B00024074620466D4604AE002A70
:102C200008DA4FF02D038DF800304FF00104C2F1A7
:102C3000000214E006D14FF030008DF800004FF094
:102C400001041AE04FF00A0C92FBFCF30CFB132377
:102C500092FBFCF203F13003335400F10100002A2F
:102C6000F0D108E006EB0002A0F1010012F8012CFF
:102C70002A5504F101040028F4D14FF00000285532
:102C80002A46384600F003F809B02046F0BD2DE989
:102C9000F04117460E46044600250BE0314620461B
:102CA00000F00EF8641CE4B20F2C02D90024B61C0C
:102CB000F6B26D1C7A5D002AF0D12846BDE8F0819D
:102CC00070B51646C206150E0C46072918D80F28EF
:102CD00016D82946204600F02DF80A48082100EBB6
:102CE0000610064600F05AF8641CE0B2294600F0CF
:102CF00021F806F10800BDE87040082100F04EB848
:102D000070BD00006456000870B50C46050001D087
:102D1000012D0ED10CB1012C0BD1DA2000F02AF8D4
:102D2000280100EB4410BDE87040801CC0B200F0E8
:102D300021B870BD70B50E4D0C462978022905D119
:102D4000072803D8B030C0B200F014F82878022861
:102D50000CD17F2C0AD804F00F0000F00BF81020E3
:102D600000EB1410BDE8704000F004B870BD000026
:102D7000340000201CB500218DF804108DF80500EA
:102D80004FF4FA7000900448022301AA78214068A9
:102D9000FDF730FE1CBD0000340000200EB54FF4DE
:102DA000FA728DE807000448012340227821406828
:102DB000FDF7B6FE0EBD000034000020FEF7DAFE7F
:102DC000FEF7D6FEFDF79AFBFCE7000010B5502099
:102DD00080F31188BFF34F8FBFF36F8F02F0D6F9E6
:102DE00018B104494FF080500860002080F311882A
:102DF00010BD000004ED00E030B58FB0282168461A
:102E0000FDF7F7F914210AA8FDF7F3F901210804E9
:102E1000CDE900100024029402250491CDE9075069
:102E20004FF4E01009906846FEF7FEF80F20CDE958
:102E30000A056802CDE90C4002210AA80E94FDF7AC
:102E4000E7FF0FB030BD70470148FEF7DABA000067
:102E5000E8010020F0B50268164B174C174D4FF0F3
:102E60008047984205D0B84203D0A04201D0A84282
:102E700003D122F070064A683243984205D0B84226
:102E800003D0A04201D0A84203D122F44074CA6802
:102E900022434C6922F08002224302608A68C262A7
:102EA0000A688262984201D1096901630121416186
:102EB000F0BD0000002C014000040040000800406C
:102EC0004FF47A725143AFF3008002C001F050BD5D
:102ED0000021016041608160704710B50146001D0E
:102EE00002F0AEF8012800D0002010BD10B5044655
:102EF0000146001D02F0A4F8206810BD70470000D4
:102F000070B5044600680169E26821F4405111433C
:102F100001612169A0680843616908432168CA68A2
:102F200041F20C639A430243CA6020684169A26976
:102F300021F44071114341611E492068884202D149
:102F4000FEF72CF801E0FEF719F800EBC00101EBE9
:102F50000012606864218000B2FBF0F3B3FBF1F370
:102F60006FF018067343B2FBF0F5B2FBF0F605EB19
:102F70008305322303EB0515B5FBF1F5B6FBF1F63E
:102F800005F0F00505EB0615B2FBF0F6B2FBF0F02C
:102F9000B0FBF1F06FF01802504306EB800003EB3A
:102FA0000010B0FBF1F0216800F00F0028448860A9
:102FB00070BD0000003801402DE9F04198461746E9
:102FC0000E460446069D1DE0681C1BD02DB1FDF782
:102FD00047FCA0EB0800A84214D92068C16821F47E
:102FE000D071C1602068416921F001014161202058
:102FF00084F83D0084F83E00002084F83C00032063
:10300000BDE8F0812068006836EA000004D00020A6
:10301000B842D9D00020F3E70120F9E70B4810B5FA
:1030200000680168C94389060FD46FF02001016070
:1030300007480068C4B2054821464430FDF7A5F9A9
:103040002046BDE81040FFF749BB10BD3C030020FF
:1030500004440040FEE700000FB4054B10B503A97F
:10306000044A029800F03CF810BC5DF814FB000024
:1030700019360008000100200FB4084B10B504A950
:1030800002AA039800F02CF8044602A9002000F0E0
:10309000C8F9204610BC5DF814FB0000233400087A
:1030A0000907090E002804DB00F1E02080F8001475
:1030B000704700F00F0000F1E02080F8141D704709
:1030C00002E008C8121F08C1002AFAD170477047F1
:1030D000002001E001C1121F002AFBD1704700004F
:1030E0002DE9FF4F8BB088460546002606E02528CF
:1030F0000BD0DDE90D1290476D1C761C2878002856
:10310000F5D10FB03046BDE8F08F0024A146A246AD
:103110000122AE4900E0044315F8013F203B02FACA
:1031200003F00842F7D128782A2810D06FF02F0238
:103130002878A0F13001092915D809EB890102EBA3
:10314000410144F0020400EB01096D1CF0E758F85E
:10315000041B5FEA010903D544F40054C9F10009D6
:1031600044F002046D1C28782E2817D115F8010FA1
:1031700044F004042A280ED06FF02F022878A0F122
:10318000300109290AD80AEB8A0102EB410100EB60
:10319000010A6D1CF2E758F804AB6D1C28786C2806
:1031A0000FD006DC4C2817D068280DD06A2814D11F
:1031B00004E0742810D07A280FD10DE044F40014F4
:1031C0000AE044F4801401E044F440146978814238
:1031D00002D104F580146D1C6D1C2878692865D017
:1031E00006DC00288DD0632827D0642806D15DE056
:1031F0006E2808D073282AD0752877D0DDE90D1203
:103200009047761CE0E0C4F30250022809D003285E
:103210000DD0D8F8001004280DD00E6008F1040875
:10322000D2E0D8F80010F217C1E90062F6E7D8F84A
:1032300000100E80F2E70E70F0E718F8041B8DF80E
:10324000001000208DF80100EB46012003E058F843
:1032500004BB4FF0FF3061074FF0000701D40AE0D4
:103260007F1C57450DDA8742FADB1BF8071000294F
:10327000F6D106E07F1C8742FCDB1BF80710002913
:10328000F8D1DDE90D23A9EB07008146214600F0C6
:10329000B1F83044C61904E0DDE90D121BF8010B4A
:1032A00090477F1EF8D22146484688E058F8040B24
:1032B000C4F302514FF00A0B032900D100B20429D4
:1032C00000D140B2002802DA40422D2102E021055F
:1032D00005D52B218DF82410012104E006E0E1073B
:1032E00010D02021F6E708AF089113E058F8040B3E
:1032F000C4F302514FF00A0B032900D180B2042914
:1033000000D1C0B20021EEE75946FCF7BFFF3031D3
:1033100007F8011D0028F7D1ADEB070000F1200BE5
:10332000600702D524F4803401E04FF0010ADA4549
:1033300002DDAAEB0B0000E00020824600EB0B014F
:1033400008980144A9EB01000A90E00306D4DDE9E6
:103350000D2321460A9800F04DF806444FF000096D
:1033600008E009A911F80900DDE90D12904709F1FB
:103370000109761C08998945F3DBE0030CD5DDE9EA
:103380000D2321460A9800F035F8064404E0DDE9F3
:103390000D1230209047761CBAF10001AAF1010A03
:1033A000F5DC05E0DDE90D1217F8010B9047761CFE
:1033B000BBF10001ABF1010BF4DC0A982146DDE919
:1033C0000D2300F005F806446D1C97E6092801005E
:1033D0002DE9F041044600251E461746880404D412
:1033E00005E039462020B0476D1C641EF9D52846FB
:1033F000BDE8F0812DE9F041044600251E469046C7
:10340000C80301D5302700E02027880404D505E053
:1034100041463846B0476D1C641EF9D52846BDE8C4
:10342000F0810A68531C0B601070704730B5044679
:1034300006480023026803E012F8015B25705B1C5C
:103440008B42F9DB0260084630BD0000FC00002022
:103450002DE9F0418EB088460546002401F061F860
:1034600000214F1E06460E2808D2DFE800F06B0749
:103470006B096B48486B076B076B076A044666E08D
:10348000089108AA6969E8680292CDE9031007ABC0
:103490000AA8CDE9000305A8031D421C09A9801C48
:1034A000FEF77AFC01285CD109988DF8140005AA72
:1034B0000AA9284600F058F89DF81400F0B3012836
:1034C00002D0022808D037E0BDF818000090002391
:1034D0000422A968286906E0BDF8180000900023BE
:1034E0000522A9682869FEF7A7FD011E24DD4246D2
:1034F000284601F073F80446401C29D022E0E86811
:10350000009001AA02A903A86B69FEF7F3FB01284A
:1035100012D1BDF804000090052E10D00722002320
:10352000A9682869FEF788FD011E05DD4246284688
:1035300001F054F8040005D03C4609E002E0062200
:10354000EDE72977284600F080F80028F4D144B14F
:10355000286A10B12846FEF771FB0EB02046BDE880
:10356000F0813446F9E700002DE9FC479146884692
:1035700006464FF0FF34002506EBC507B96AD1B304
:103580004046FEF7C8FC70BBD8E901100A18BB6AB8
:1035900020E000BF90F800C0BCF12F0F0AD02B290B
:1035A0000BD0232913D0614518D12B2905D023290D
:1035B0000DD00DE02F2911D10AE0411C01E0811C42
:1035C000401C914204D209782F29F8D100E0501E06
:1035D000401C5B1C197809B19042DBD390420AD1A0
:1035E00011F0FF0F07D1F86A28B1CDE90098F96A08
:1035F0006846884700246D1C052DBDDB601C07D183
:10360000306D28B1CDE90098316D684688470024B7
:103610002046BDE8FC87000013B505484FF4FA7357
:10362000012269460068FEF771F800981CBD000091
:10363000140000200168A1F57F42FF3A03D0491C25
:103640000160084670470121FAE73EB504468069EB
:10365000002520B304F15800FFF73FFC20B904F126
:103660006400FFF73AFCD0B1207F10B14FF0FF3576
:1036700015E06846FFF72CFC4FF47A716846FFF7B7
:1036800024FCA1682069FEF7C2FD011E07DD6A4621
:10369000204600F0A3FF050001D101202077284635
:1036A0003EBD0000FDF70AFBFFF7A6FBFEF744FF57
:1036B000FEF7B4FFFEF7CEFFFEF790FF0220FEF705
:1036C00005FA08B1416888470A214FF4007001F0FB
:1036D000FBF801F065F9FEF755FAFEF703FAFFF77C
:1036E000D1F8FCF784FEFFF749FAFFF731FA05A09D
:1036F000FFF7B2FC00F0A2F8FEF70EFF00F0BAF8F8
:10370000FEE7000048656C6C6F20576F726C642E8A
:103710000D0A0000F0B50B30154D20F00701002414
:10372000144A0FE003688B420BD38B4205D95E1A13
:1037300043184768C3E9006700E04368136002C0AC
:1037400004E0021D10680028ECD12046002802D1B8
:10375000286808B10020F0BD064A07481060074AF3
:10376000121A22F00702C0E9002401202860D7E7DE
:103770000801002004010020741C0020701E00209D
:1037800070B5054600244FF47A7603E0304600F029
:103790004FFF641CAC42F9DB70BD0000F8B5044675
:1037A000006881680091C3686068D0E9011214A0C4
:1037B000FFF752FC60681C498068FCF731FD002867
:1037C0001DD000268DF800603046FEF77FF90546D3
:1037D000206816A18068FCF723FD18B101208DF840
:1037E000000007E0206813A18068FCF719FD08B10C
:1037F0008DF80060AB680122694628469847F8BDFD
:103800004D657373616765206172726976656420C6
:103810006F6E20746F70696320252E2A733A2025FD
:103820002E2A730A00000000F45400086C6564201E
:103830006F6E00006C6564206F666600EFF30580B4
:1038400058B9EFF3108040B909490868022801D03F
:1038500030B109E0EFF3118030B16FF0050070472F
:1038600001200860002070474FF0FF3070470000D3
:103870008C00002010B5EFF3058060B9EFF31080E5
:1038800048B90B490868022802D0012806D00BE08D
:10389000EFF3118040B16FF0050010BD0220086009
:1038A00001F07EF8002010BD4FF0FF3010BD000089
:1038B0008C000020F0B585B04FEA01034FF0000402
:1038C000EFF305810394A1BBEFF3108189BB21497C
:1038D0000968022902D1EFF3118151BB48B3802658
:1038E00018218DF8104004AD42B3176807B13D466A
:1038F00097691FB139467F1E382F02D21779FF070B
:1039000002D0002005B0F0BD576907B1BE08D2F85B
:1039100008C0BCF1000F0DD0D4685C2C18D312691C
:103920003AB137B18DE806103246294601F0EFFB77
:1039300003900DE0D7685FB912694AB903AACDE9CF
:103940000012B2B2294601F0B5FB012800D0039461
:103950000398D7E78C00002000280BD0007828B10E
:10396000012805D0022805D1FFF7C8BAFEF70AB929
:10397000FEF7B8B870470B4628B123B11AB111460B
:103980001846FEF7DDB84FF0FF30704720B119B18F
:1039900012B10878FEF714B94FF0FF3070470300FA
:1039A0004FF0FF3012D0002910D00B78012B08D037
:1039B000042B0BD10846498940684FF4FA72FEF790
:1039C000F1BE084689684068FEF70EBF70470200E6
:1039D0004FF0FF300AD0002908D00978012903D020
:1039E000042903D1FEF73EBFFEF72CBF704708B194
:1039F000FEF748BF4FF0FF30704730B414460D4615
:103A000038B135B12CB12146284630BC1A46FEF7F4
:103A10006FBF30BC4FF0FF30704730B414460D46D6
:103A200038B135B12CB12146284630BC1A46FEF7D4
:103A3000C5BF30BC4FF0FF30704700002DE9F041AA
:103A4000134C0F46054666692068001D00F00CFE09
:103A5000681C07D137B12168BDE8F0410D48091D48
:103A600000F052BE20683544B5424560216805D259
:103A7000A068BDE8F041091D00F02EBE6068091D78
:103A800000F02AFE206B854200D22563BDE8F0815C
:103A90003C000020880800202DE9F041054600F098
:103AA0003FFE2D4C2069401C206120682B4F10B137
:103AB000E06930B32BE025602069012827D100267A
:103AC00006EB860007EB800000F0F8FD761C382E30
:103AD000F6D3234800F0F2FD2148143000F0EEFD4B
:103AE0001F48283000F0EAFD1D483C3000F0E6FD9C
:103AF0001B48503000F0E2FD194860601430A060AF
:103B000005E02068E96AC06A884200D82560E06A5A
:103B1000401CE0626864E86AA169884200D9A0613B
:103B200000EB800007EB8000291D00F0EDFD00F0A8
:103B300017FEE06900280CD02068E96AC06A884254
:103B400007D208494FF080500860BFF34F8FBFF392
:103B50006F8FBDE8F08100003C000020D8030020FA
:103B60003808002004ED00E038B500F0D9FD104C15
:103B7000A068C8B90F4800F0A1FD0E48143000F04D
:103B80009DFD0C482060143060600A4B00202833F3
:103B9000009003F1500210210A2001F02FF8A060DC
:103BA00010B105A100F05AFEBDE8384000F0D8BDC4
:103BB000780000209C080020546D72510000000025
:103BC00030B4026C0B46002A0BD0C1681144C160AE
:103BD0004468A14201D30168C16030BC1846FCF7BB
:103BE000EFBA30BC70472DE9F041856B17460446AB
:103BF0000026026C82B1C7B1E068FCF7E1FAE16827
:103C0000206C091AE1602268914202D26168081AA8
:103C1000E060022F16D017E02068A8B9606801F0B4
:103C200019FB0646002060600EE0A068FCF7C8FAA9
:103C3000216CA0680844A0606168884204D32068B1
:103C4000A06001E005B16D1E6D1CA5633046BDE8A6
:103C5000F08110B5044690F8590058B101280CD0F5
:103C600002280FD0502080F31188BFF34F8FBFF38D
:103C70006F8FFEE7206B00F087FD2046BDE8104007
:103C800000F082BD10BD000010484FF440614207B3
:103C900006D0C01D0D4920F00700411AC1F5406152
:103CA0000B4A00230144C2E900030839103A21F00D
:103CB000070111604B600B600B1AC0E900139360A1
:103CC0004FF000405360D060704700006C1000203F
:103CD000A0000020144E154CA6F29C474FF08058CF
:103CE000DFF84C9012E000BF00F01AFDF068C568E4
:103CF000281D00F0B9FC2069401E2061E068401ECC
:103D0000E06000F02DFD2846FFF7A3FFE0680028E3
:103D1000EAD138680128F9D9C9F80080BFF34F8F7C
:103D2000BFF36F8FF2E70000740800203C00002012
:103D300004ED00E070B51D46049C51B1C4F80020AC
:103D4000C4E90F010121204600F08CFF84F84C509B
:103D500070BD2460F4E72DE9F0470E46DDE90984E3
:103D60001746824691009946089DA522206BFCF7D4
:103D700039FA6FF00301206B01EB8701084420F052
:103D80000707780707D0502080F31188BFF34F8FC3
:103D9000BFF36F8FFEE72218315C82F83410315C7C
:103DA00011B1401C1028F6D3002684F84360382D4A
:103DB00000D33725E562C4E91356201D00F089FCC5
:103DC00004F1180000F085FC2461C5F1380064623C
:103DD000A061666584F858604A465146384600F04E
:103DE00065FB2060B8F1000F01D0C8F80040BDE8C5
:103DF000F087000030B5114900E011460A688242A0
:103E0000FBD34B685C18844203D140681844486077
:103E1000084643681C18944209D1084C103C246899
:103E2000A24209D052681A4442600A6812680260CD
:103E3000814200D0086030BD0460F9E7A000002096
:103E400070B5002441600B4D0061914206D8D11A33
:103E50008269914206D2011D686807E09A4203D246
:103E6000994201D3012403E0011D286800F034FCCD
:103E7000204670BD7800002010B5044600F050FCCC
:103E8000A06B28B15FF0000400F06AFC204610BD72
:103E90000124F9E7ADF54E7D002558223E495FA883
:103EA000C595FCF78DF9C6A8FEF7F2FD0020FDF7D9
:103EB0000DFE08B1416888470120FDF707FE0400A8
:103EC00001D0616888474FF4807075A9CDE9000181
:103ED00002901FAB47F23052C6A903A8FDF788FE37
:103EE0002EA140F25B72C6A8FEF7C0FD010002D011
:103EF00036A0FFF7B1F803208DF884013D486290A9
:103F00003DA06F90424872905FA903A8FDF79FFE05
:103F1000010003D03FA0FFF79FF802E047A0FFF7A2
:103F20009BF81D49494B00224C3903A8FEF775FA4E
:103F3000010001D046A02CE0E3680422C5A9204678
:103F40009847F8B98DF828538DF82953B5A8CC9027
:103F5000BDF81633BDF8142347A1FFF78DF8B5A8B7
:103F6000FCF770F9CD90B5A94BA0FFF775F80A4999
:103F7000CAAA273903A8FDF7FDFF010002D048A017
:103F8000FFF76AF8642103A8FEF7A3FA0100D3D073
:103F90004DA0FFF761F8CFE740550008696F742D19
:103FA00030367A3030627961663377333669672E1E
:103FB0006D7174742E696F746875622E616C6979A5
:103FC000756E63732E636F6D00000000526574752B
:103FD000726E20636F64652066726F6D206E65740B
:103FE000776F726B20636F6E6E65637420697320E8
:103FF00025640A00EC5E0008447368616E426F61DC
:10400000726431266B3037776E6D397148665300B4
:10401000405F000852657475726E20636F6465209E
:1040200066726F6D204D51545420636F6E6E6563E0
:10403000742069732025640A000000004D51545417
:1040400020436F6E6E65637465640A009D370008D7
:1040500052657475726E20636F64652066726F6D51
:10406000204D5154542073756273637269626520E8
:1040700069732025640A00004B6579206E756D62B6
:1040800065723A2025642C20507265737320746920
:104090006D653A202564000025730D0A00000000BC
:1040A00052657475726E20636F64652066726F6D01
:1040B000204D515454207075626C69736820697387
:1040C0002025640A0000000052657475726E20633A
:1040D0006F64652066726F6D207969656C64206914
:1040E000732025640A00000030B589B0304D55E0DA
:1040F0000498002806DADDE90601059A904704983D
:1041000000284BDB069C606910B1201D00F0ACFA62
:1041100002A800F0B9F8024604980A283ED2DFE867
:1041200000F00505053D263705053D260598A169E2
:10413000034601442046FFF783FE00B3616A204630
:104140008847E069012829D1002000900598A169DD
:10415000002342181946204601F086F978B950200C
:1041600080F31188BFF34F8FBFF36F8FFEE7059881
:10417000A06128B1811813462046FFF761FE0DE0CB
:10418000502080F31188BFF34F8FBFF36F8FFEE78E
:1041900094F82C0010B9204600F0F6FA002204A989
:1041A000A86800F0B1FE0028A2D109B030BD00001F
:1041B000780000202DE9FC410F46054600F034FC54
:1041C00001A800F061F80446019818B101F0BAF8AE
:1041D000BDE8FC81224EAFB170680068A8B300272B
:1041E000291B3A46B06800F04DFB01F0ABF80028FF
:1041F000EED11C494FF080500860BFF34F8FBFF3E2
:104200006F8FE5E7A542EBD801F09CF830682746B0
:10421000C068C468201D00F027FAE069012810D1A9
:10422000A0692B4641193A462046FFF709FE40B1E6
:1042300000200346014600902A46204601F014F96A
:1042400020B1616A20468847C2E707E0502080F32A
:104250001188BFF34F8FBFF36F8FFEE70127BFE7D2
:104260007800002004ED00E006484168096829B1A3
:104270004168C968C9684968016370474FF0FF31F8
:10428000FAE700003C00002070B5054600F078FF1A
:10429000064E04463069844203D200F009F801203A
:1042A00000E0002028602046346170BD78000020C6
:1042B000F8B5194D1FE0C068C4680668201D00F0FD
:1042C000D3F9616A20468847E069012813D1A069C3
:1042D0003044B04206D924616060211D286800F096
:1042E000FBF908E0002003460146009032462046D4
:1042F00001F0BAF838B1286801680029DBD1696893
:10430000C5E90010F8BD502080F31188BFF34F8F2E
:10431000BFF36F8FFEE70000780000200848406878
:10432000401C4FF0500080F3118804D0BFF34F8F32
:10433000BFF36F8FFEE7BFF34F8FBFF36F8FFEE7C3
:10434000A8000020074C2068016841B1C068002126
:10435000D0F80000FFF72EFFFFF7C6FEF3E70121BC
:104360000020F7E7780000202DE9F041044600F036
:10437000D7F994F9455004F1240609E0606A48B180
:10438000304600F0A7FF08B100F0B8FA6D1E6DB21C
:10439000002DF3DC4FF0FF3684F8456000F0E0F9C3
:1043A00000F0BEF994F9445004F1100709E02069C7
:1043B00048B1384600F08EFF08B100F09FFA6D1E3C
:1043C0006DB2002DF3DC84F84460BDE8F04100F0EC
:1043D000C7B900002DE9F0410546002700F024FB95
:1043E000314E306808B9FFF74FFCF06805424BD1F9
:1043F000C5B3083568070ED005F00700C0F1080006
:104400000544680707D0502080F31188BFF34F8F11
:10441000BFF36F8FFEE72DB37068854234D8224812
:10442000103001460C6801E020460C466168A94244
:1044300002D221680029F7D131688C4224D0076864
:104440002168016060680837411B10290FD9601985
:10445000420708D0502080F31188BFF34F8FBFF37D
:104460006F8FFEE710E041606560FFF7C3FC616895
:104470007068401A7060B268904200D2B060F06814
:1044800001430020C4E9000100F05CFF780707D079
:10449000502080F31188BFF34F8FBFF36F8FFEE77B
:1044A0003846BDE8F08100009000002010B5031FE1
:1044B0004FF080741C601B1F21F001011960191F4F
:1044C000024B0B60143940380A6010BD1D430008D0
:1044D000016811F8012B01601046704701684A78A5
:1044E00011F8023B016002EB032210467047F0B561
:1044F000054608680026101A17460C4601280CDDF0
:104500000846FFF7EBFF686021680A18BA4204D832
:10451000A9602168012608442060002028603046F8
:10452000F0BD2DE9F84F044600278B463D4608466E
:10453000FEF7DCFC0346606D616901224668B04706
:104540000646012847D181465846FEF7CFFC012692
:104550008246B04604E008F10108B8F1040F11DC0E
:10456000606D53460122D0F804C06946E047012837
:1045700008D19DF8000000F07F0101FB0655F6010F
:104580000006E8D460692946401CFDF7AFFC00EB4B
:104590000906E068801BA84202D26FF001061AE00B
:1045A000002D0DDD5846FEF7A1FC034660692A4642
:1045B0008119606D4668B047A84201D000260AE024
:1045C0006069A169007860F307073E0919B104F139
:1045D0006400FEF775FC3046BDE8F88F2DE9F04128
:1045E00090460E4605464FF0FF3700240DE040464A
:1045F000FEF77CFC0346286932460119686DD0F845
:1046000008C0E047002807DB0444B44204DA40460F
:10461000FEF763FC0028EAD0B44207D105F1580048
:10462000A969FEF74DFC0020BDE8F0813846FBE7A4
:1046300030B50C4A00211368DC6A4FF47A7260438B
:10464000B0FBF2F55A6A586A9042FCD002D9A0EB4E
:10465000020202E0A4EB0202024411440246A94213
:10466000F1D330BDE8010020D0E9013201699A6040
:10467000D0E901235A604A68824201D182684A60C7
:10468000002202610868401E086008687047000048
:10469000034B036003F15C000860802010607047EA
:1046A000B4090020044B036003F15C0008604FF480
:1046B0008070106070470000100C002000F10801AD
:1046C0004FF0FF32C0E90112C160016100210160B9
:1046D000704700210161704730B50B685A1C02D049
:1046E00000F1080202E0026904E0224654682568ED
:1046F0009D42FAD953684B6099608A6051600861A5
:104700000168491C016030BD42684A6093688B6053
:1047100093685960916008610168491C01607047A5
:10472000502080F31188BFF34F8FBFF36F8F0A497A
:104730004868401C486001280CD10848006810F007
:10474000FF0F07D0502080F31188BFF34F8FBFF3C6
:104750006F8FFEE770470000A800002004ED00E026
:104760000849486828B1401E486001D180F311888B
:104770007047502080F31188BFF34F8FBFF36F8FC6
:10478000FEE70000A800002070B5002827D0144DD7
:10479000A0F108046168E868014207D1502080F365
:1047A0001188BFF34F8FBFF36F8FFEE722683AB1D6
:1047B000502080F31188BFF34F8FBFF36F8FFEE758
:1047C0008143616000F030F960686968084468609E
:1047D0002046FFF70FFBBDE8704000F0B3BD70BD91
:1047E000900000204FF0E020002101618161054927
:1047F0004FF47A720968B1FBF2F1491E4161072159
:10480000016170471000002010B5FBF7C3FC11498F
:1048100010280ED300F1E02090F8F0030A789042BF
:1048200007D2502080F31188BFF34F8FBFF36F8FF3
:10483000FEE709480068896800F4E060884207D90B
:10484000502080F31188BFF34F8FBFF36F8FFEE7C7
:1048500010BD0000A80000200CED00E010B5084BD2
:10486000002200BF53F832401CB1521C082AF9D371
:1048700010BD43F8321003EBC201486010BD0000C8
:104880009803002070B515460E460446FFF748FF12
:1048900094F944100020491C01D184F8440094F993
:1048A0004510491C01D184F84500FFF759FFA06B62
:1048B00028B92A46314604F1240000F03DF820468C
:1048C000BDE87040FFF750BD1CB50023CDE90013D3
:1048D000024602A1044800F0EDFB1CBD4D515454AA
:1048E0004563686F30000000953E000802498A6AFF
:1048F00002604969416070473C0000200149012085
:10490000486270473C00002010B50C4650B1094980
:1049100009681831FFF7E0FE2046BDE8104001218C
:10492000FFF78CB8502080F31188BFF34F8FBFF38F
:104930006F8FFEE73C00002070B514460D4668B14D
:104940000A4909681831FFF7DFFE0CB14FF0FF3557
:1049500021462846BDE87040FFF770B8502080F32C
:104960001188BFF34F8FBFF36F8FFEE73C0000202D
:1049700010B504000AD0FFF7D3FE0848816A216011
:1049800040696060BDE81040FFF7EABE502080F348
:104990001188BFF34F8FBFF36F8FFEE73C000020FD
:1049A00030B587B00024039405AA04A903A8049491
:1049B000FFF76EFEDDE903010094CDE9011000234D
:1049C00015A11748059A00F0A2FB164D0028686350
:1049D0001FD000F019FD012809D0401C19D150202A
:1049E00080F31188BFF34F8FBFF36F8FFEE7502026
:1049F00080F31188BFF34F8FBFF36F8F4FF0FF30FD
:104A000028630120E8616C6107B0BDE8304000F028
:104A1000A1B807B030BD000049444C45000000007B
:104A2000D53C00083C0000200248816B491C816392
:104A3000704700003C000020164810B5816B11B192
:104A40000121416210BD002141628169124A01E0E9
:104A5000B9B1491E01EB810352F82330002BF7D086
:104A600001EB810302EB830202F1080453685B68E7
:104A70005360A34201D15B685360DA6802608161D0
:104A800010BD502080F31188BFF34F8FBFF36F8F9D
:104A9000FEE700003C000020D80300202DE9F04193
:104AA00016460D4607464FF0FF343046FEF715FA1E
:104AB00040B931463846FEF7CBFC0446A84201D047
:104AC000002CF2DA2046BDE8F08170B504460E46AF
:104AD0000846FBF7B7FB05460146204600F00FF8F5
:104AE0002A4631462068FBF76BFB2068284420608B
:104AF00070BD026811700168491C0160704710B5F3
:104B0000CA17046801EB12631A0A22700268521C69
:104B1000026011700168491C016010BD70B5141E5F
:104B20001E4605460BDD1146FFF7E9FF22463146DA
:104B30002868FBF745FB28682044286070BD19B140
:104B4000BDE87040FFF7C1BFBDE870400021FFF72E
:104B5000D6BF00001CB5264908780190FF200870D8
:104B600008788DF800009DF800009DF8002000F006
:104B7000F000904207D0502080F31188BFF34F8F90
:104B8000BFF36F8FFEE79DF800001A4B00F0500056
:104B900018700720986005E09DF8002052008DF8FD
:104BA0000020401E9DF800201206F5D498600328CE
:104BB00007D0502080F31188BFF34F8FBFF36F8F62
:104BC000FEE74FF440709860019808700A48016849
:104BD00041F470010160016841F070410160FFF72C
:104BE00001FE00205860FBF79FFA00201CBD00006A
:104BF00000E400E0A800002020ED00E038B5049DAE
:104C000018B153B1CAB181B120E0502080F31188AE
:104C1000BFF34F8FBFF36F8FFEE7502080F31188F3
:104C2000BFF34F8FBFF36F8FFEE7502080F31188E3
:104C3000BFF34F8FBFF36F8FFEE739B1502080F382
:104C40001188BFF34F8FBFF36F8FFEE750241C46D0
:104C5000012384F846302B460094FFF76BF820467A
:104C600038BD000070B50D46040025D0FFF758FD93
:104C7000D4E90F20216802FB001161600021A163CB
:104C80002168A1600A46D4E90F01401E00FB012102
:104C9000E16021464FF0FF3001F8440F487004F105
:104CA00010008DB1FFF70AFD04F12400FFF706FDA7
:104CB000FFF756FD012070BD502080F31188BFF32F
:104CC0004F8FBFF36F8FFEE721690029F0D000F00E
:104CD00001FB0028ECD004494FF080500860BFF37E
:104CE0004F8FBFF36F8FE3E704ED00E02DE9FF473F
:104CF00082B01D468A464FF00008040003D0BAF186
:104D0000000F08D011E0502080F31188BFF34F8FBF
:104D1000BFF36F8FFEE7206C38B1502080F311880D
:104D2000BFF34F8FBFF36F8FFEE7022D0AD1E06B09
:104D3000012807D0502080F31188BFF34F8FBFF3B5
:104D40006F8FFEE700F00EFA3F4F4FF000094FF073
:104D5000805648B9049838B1502080F31188BFF3C9
:104D60004F8FBFF36F8FFEE7FFF7DAFCA06BE16BAD
:104D7000884207D3022D05D00498D0B1B8F1000FB6
:104D80001AD01EE02A4651462046FEF72CFF616AE3
:104D900019B104F1240000F09DFA20B13E60BFF388
:104DA0004F8FBFF36F8FFFF7DBFC012006B0BDE82C
:104DB000F087FFF7D5FC22E06846FFF797FD4FF03C
:104DC0000108FFF7CDFCFFF72FFEFFF7A9FC94F9D0
:104DD0004400401C01D184F8449094F94500401CE3
:104DE00001D184F84590FFF7BBFC04A9684600F0A8
:104DF00027F930B12046FFF7B7FA00F0A3FA0020F8
:104E0000D4E7FFF78DFCA06BE16B884213D1FFF76D
:104E1000A7FC04F110000499FFF776FD2046FFF788
:104E2000A3FA00F08FFA00289ED13E60BFF34F8FA7
:104E3000BFF36F8F98E7FFF793FC2046FFF794FAD4
:104E400000F080FA90E7000004ED00E02DE9F04763
:104E50001F4690468946040003D0B9F1000F08D0E0
:104E600011E0502080F31188BFF34F8FBFF36F8F95
:104E7000FEE7206C38B1502080F31188BFF34F8FCC
:104E8000BFF36F8FFEE7022F0AD1E06B012807D036
:104E9000502080F31188BFF34F8FBFF36F8FFEE771
:104EA000FFF7B2FC5020EFF3118680F31188BFF3B7
:104EB0004F8FBFF36F8FA06BE16B884206D3022F39
:104EC00004D0002086F31188BDE8F08794F945509E
:104ED0003A4649462046FEF786FE681C04D06D1C03
:104EE00084F845500120EDE7606A0028FAD004F10B
:104EF000240000F0EFF90028F4D0B8F1000FF1D051
:104F00000121C8F80010EDE72DE9F747002683B02E
:104F10008A46040003D0BAF1000F08D011E05020F7
:104F200080F31188BFF34F8FBFF36F8FFEE7206CC4
:104F300038B1502080F31188BFF34F8FBFF36F8FCC
:104F4000FEE700F00FF9DFF8F4804FF000094FF0B2
:104F5000805748B9059838B1502080F31188BFF3C5
:104F60004F8FBFF36F8FFEE7FFF7DAFBA56BC5B17D
:104F700051462046FEF724FE6D1EA563206950B100
:104F800004F1100000F0A6F928B1C8F80070BFF3D2
:104F90004F8FBFF36F8FFFF7E3FB012006B0BDE833
:104FA000F087059808B11EB106E0FFF7D9FB27E0AE
:104FB0006846FFF79BFC0126FFF7D2FBFFF734FDA5
:104FC000FFF7AEFB94F94400401C01D184F84490F3
:104FD00094F94500401C01D184F84590FFF7C0FBCF
:104FE00005A9684600F02CF8002820460AD0FFF7F3
:104FF000BBF900F0A7F92046FEF73EFF0028B3D02A
:105000000020CBE7FEF738FF90B104F124000599AA
:10501000FFF77AFC2046FFF7A7F900F093F9002884
:10502000A2D1C8F80070BFF34F8FBFF36F8F9BE71B
:105030002046FFF799F900F085F995E704ED00E0C7
:105040002DE9F0410C46050011D0C4B1FFF768FB13
:10505000174B5A696E682068911B471C17D02F6840
:105060009B6A9F4219D0964217D8012410E0502025
:1050700080F31188BFF34F8FBFF36F8FFEE750208F
:1050800080F31188BFF34F8FBFF36F8FFEE70024CB
:10509000FFF766FB2046BDE8F081884205D9401A3B
:1050A00020602846FFF722FCF1E700202060DCE7C3
:1050B0003C0000202DE9FF5F8346DDE90E8799461D
:1050C00016468A469000FFF785F905001CD05C2043
:1050D000FFF780F9040014D00020256384F85900FC
:1050E000CDE90240CDE900874B463246514658464D
:1050F000FEF731FE2046FEF7CFFC012004B0BDE8EC
:10510000F09F2846FFF740FB4FF0FF30F6E7F0B581
:1051100085B0DDE90B640A9DA6B1DCB15C27009780
:105120002663022684F85960002604AFCDE90246C2
:10513000CDE90057FEF70FFE2046FEF7ADFC0498C0
:1051400005B0F0BD502080F31188BFF34F8FBFF33F
:105150006F8FFEE7502080F31188BFF34F8FBFF3AE
:105160006F8FFEE70548C16919B1806B18B1002047
:105170007047012070470220704700003C0000206B
:1051800001484069704700003C0000202DE9F041D3
:105190002E4C0027A06B40B1206A401C2062606A40
:1051A00000B101273846BDE8F0816669761C66616A
:1051B00013D16068006838B1502080F31188BFF3C4
:1051C0004F8FBFF36F8FFEE76068A1686160A060DA
:1051D000A06A401CA062FFF747F8206BDFF87080E0
:1051E000864209D36068006880B16068C068C5689D
:1051F000686886420DD220632068C06A00EB800197
:1052000058F821000128CAD90127C8E74FF0FF301C
:10521000F1E7281DFFF728FAA86A18B105F1180070
:10522000FFF722FAE86AA169884200D9A06100EB81
:10523000800108EB8100291DFFF766FAE86A216802
:10524000C96A8842CED30127CCE700003C00002089
:10525000D803002070B504004FF0000133D01B4D7F
:105260002868844207D0502080F31188BFF34F8F05
:10527000BFF36F8FFEE7206D38B1401E2065E36CF1
:10528000E26A9A421FD040B11DE0502080F311889D
:10529000BFF34F8FBFF36F8FFEE7201DFFF7E4F9D9
:1052A000E06CE062C0F13800A061E06AA969884260
:1052B00000D9A861064900EB800001EB8000211DA8
:1052C000FFF722FA0121084670BD00003C000020D3
:1052D000D803002070B5C068C46854B104F1180048
:1052E0000646FFF7C1F9144DA86B50B1314613487B
:1052F00015E0502080F31188BFF34F8FBFF36F8FFD
:10530000FEE7201DFFF7B0F9E06AA969884200D9DD
:10531000A8610B4900EB800001EB8000211DFFF725
:10532000F3F9E06A2968C96A884202D901206862F3
:1053300070BD002070BD00003C000020600800200F
:10534000D80300202DE9F0472C4D00242746A86BF8
:1053500038B1FFF7E5F9A86B401EA863A86B40B110
:1053600046E0502080F31188BFF34F8FBFF36F8F5B
:10537000FEE72969224E0120D1B3A6F59169804646
:105380003068E0B1F068C46804F11800FFF76CF908
:10539000201DFFF769F9E06AA969884200D9A86170
:1053A00000EB800109EB8100211DFFF7ADF9E06AF8
:1053B0002968C96A8842E3D3C5F82480E0E70CB1C4
:1053C000FEF752FF2C6A4CB14FEA0806FFF7DEFEEB
:1053D00000B16E62641EF9D100202862686A38B19B
:1053E0000849012738070860BFF34F8FBFF36F8F5D
:1053F000FFF7B6F93846BDE8F08700003C00002012
:105400006008002004ED00E010B586B0FEF7ACFBAC
:10541000114CA068B8B100200390049005AA04A91B
:1054200003A8FFF73FF9DDE9032102208DE807001B
:1054300000230AA10B48059AFFF769FEE06010B14E
:1054400006B0012010BD502080F31188BFF34F8FAC
:10545000BFF36F8FFEE7000078000020546D7220CC
:1054600053766300454300082DE9FF411E4613466D
:1054700002000A9D4FF0000016D0144CA768002FC0
:105480000FD0CDE900130292062917DAFFF76AFE62
:1054900002284FF000030FD000226946A068FFF7F2
:1054A00025FC04B0BDE8F081502080F31188BFF3E3
:1054B0004F8FBFF36F8FFEE72A46EEE70023324699
:1054C00069463846FFF7C2FCEBE700007800002091
:1054D000E05E000800000000000000000000000086
:1054E00000000000000200001800000000000000A2
:1054F000000000002F6B3037776E6D3971486653AE
:105500002F447368616E426F617264312F757365E9
:10551000722F6765744C6564002F67767337726D00
:10552000714A4B6D462F4D696E69426F6172642FEF
:10553000757365722F6B6579496E666F00000000A8
:105540004D51544300000000040000000000000022
:1055500000000000000000003C0001004D515457C5
:10556000000000000000000000000000000000003B
:10557000000000000000000000000000000000002B
:10558000000000000000000000000000000000001B
:10559000000000000000000000000000000000000B
:1055A00001020304060708090000000001020304C9
:1055B00041542B43574A41505F4355523D2200000E
:1055C00000000000000000000000000000000000DB
:1055D00000000000000000000000000000000000CB
:1055E0000000000041542B43495053544152543D54
:1055F00022544350222C2200000000000000000032
:10560000000000000000000000000000000000009A
:10561000000000000000000000000000000000008A
:10562000000000000000000000000000000000007A
:10563000000000000000000000000000000000006A
:10564000000000000000000000000000000000005A
:10565000000000000000000000000000000000004A
:10566000000000000000000000000000000000003A
:105670000000000000FE020202020202003F2020A1
:10568000202020200000000000000000000000009A
:105690000000000000FE020202020202003F202081
:1056A0002020202000FE020202020202003F2020F1
:1056B0002020202000FE020202020202003F2020E1
:1056C0002020202000FE020202020202003F2020D1
:1056D0002020202000FE020202020202003F2020C1
:1056E0002020202000FE020202020202003F2020B1
:1056F000202020200000000000000000000000002A
:105700000000000000000000000000000000000099
:105710000000000000000000000000000000000089
:105720000000000000FE020202020202003F2020F0
:105730002020202000FE020202020202003F202060
:105740002020202000FE020202020202003F202050
:105750002020202000FE020202020202003F202040
:105760002020202000FE020202020202003F202030
:105770002020202000FE020202020202003F202020
:105780002020202000FE020202020202003F202010
:105790002020202000FE020202020202003F202000
:1057A0002020202000FE020202020202003F2020F0
:1057B0002020202000FE020202020202003F2020E0
:1057C0002020202000FE020202020202003F2020D0
:1057D0002020202000FE020202020202003F2020C0
:1057E0002020202000FE020202020202003F2020B0
:1057F0002020202000FE020202020202003F2020A0
:105800002020202000FE020202020202003F20208F
:105810002020202000FE020202020202003F20207F
:1058200020202020000000000000000000000000F8
:105830000000000000000000000000000000000068
:105840000000000000000000000000000000000058
:105850000000000000000000000000000000000048
:105860000000000000000000000000000000000038
:1058700000000000000000F80000000000000033FD
:105880000000000000100C02100C020000000000DC
:10589000000000000040C07840C0780000043F04D1
:1058A000043F040000708888FC08300000182020A5
:1058B000FF211E00F008F0806018000000310C038A
:1058C0001E211E0000F00888700000001E21232CFD
:1058D0001927211000120E00000000000000000037
:1058E00000000000000000E01804020000000007B3
:1058F0001820400000020418E000000000402018BA
:1059000007000000404080F0804040000202010F8C
:105910000102020000000000E0000000000101019F
:105920000F01010100000000000000000090700065
:105930000000000000000000000000000001010164
:1059400001010100000000000000000000303000F4
:105950000000000000000000C038040000601807CC
:105960000000000000E010080810E000000F102008
:1059700020100F0000001010F80000000000202090
:105980003F202000007008080808F000003028249C
:1059900022213000003008080888700000182021FB
:1059A00021221C000000804030F800000006052481
:1059B000243F242400F88888880808000019202043
:1059C00020110E0000E0108888900000000F1120C8
:1059D00020201F0000180808886818000000003EFA
:1059E000010000000070880808887000001C222157
:1059F00021221C0000F008080810E000000112221B
:105A000022110F00000000C0C000000000000030A4
:105A1000300000000000008000000000000000E0F6
:105A20000000000000008040201008000001020477
:105A300008102000004040404040400000020202A8
:105A40000202020000081020408000000020100820
:105A5000040201000070480808887000000000304F
:105A600037000000C030C828E810E00007182728D9
:105A70002F2817000000C038E0000000203C23025F
:105A80000227382008F8888888700000203F2020EE
:105A900020110E00C0300808080838000718202020
:105AA0002010080008F808080810E000203F202017
:105AB00020100F0008F88888E8081000203F2020F8
:105AC0002320180008F88888E8081000203F2000EC
:105AD00003000000C0300808083800000718202024
